{
  "contractName": "contactStorage",
  "abi": [
    {
      "constant": false,
      "inputs": [
        {
          "name": "_one",
          "type": "bytes4"
        },
        {
          "name": "_two",
          "type": "bytes4"
        },
        {
          "name": "_three",
          "type": "bytes4"
        },
        {
          "name": "_four",
          "type": "bytes4"
        },
        {
          "name": "_five",
          "type": "bytes4"
        },
        {
          "name": "_six",
          "type": "bytes4"
        },
        {
          "name": "_seven",
          "type": "bytes4"
        },
        {
          "name": "_eight",
          "type": "bytes4"
        },
        {
          "name": "_nine",
          "type": "bytes4"
        }
      ],
      "name": "kill",
      "outputs": [
        {
          "name": "success",
          "type": "bool"
        }
      ],
      "payable": false,
      "stateMutability": "nonpayable",
      "type": "function"
    },
    {
      "constant": false,
      "inputs": [
        {
          "name": "_one",
          "type": "bytes1"
        },
        {
          "name": "_two",
          "type": "bytes1"
        },
        {
          "name": "_three",
          "type": "bytes1"
        },
        {
          "name": "_four",
          "type": "bytes1"
        },
        {
          "name": "_five",
          "type": "bytes1"
        },
        {
          "name": "_six",
          "type": "bytes1"
        },
        {
          "name": "_seven",
          "type": "bytes1"
        },
        {
          "name": "_eight",
          "type": "bytes1"
        },
        {
          "name": "_nine",
          "type": "bytes1"
        }
      ],
      "name": "addContacts",
      "outputs": [
        {
          "name": "success",
          "type": "bool"
        }
      ],
      "payable": false,
      "stateMutability": "nonpayable",
      "type": "function"
    },
    {
      "constant": true,
      "inputs": [],
      "name": "getContacts",
      "outputs": [
        {
          "name": "",
          "type": "bytes1[]"
        }
      ],
      "payable": false,
      "stateMutability": "view",
      "type": "function"
    },
    {
      "constant": true,
      "inputs": [
        {
          "name": "",
          "type": "uint256"
        }
      ],
      "name": "contacts",
      "outputs": [
        {
          "name": "",
          "type": "bytes1"
        }
      ],
      "payable": false,
      "stateMutability": "view",
      "type": "function"
    }
  ],
  "bytecode": "0x6060604052336000806101000a81548173ffffffffffffffffffffffffffffffffffffffff021916908373ffffffffffffffffffffffffffffffffffffffff1602179055506108bb806100536000396000f300606060405260043610610062576000357c0100000000000000000000000000000000000000000000000000000000900463ffffffff16806341c0e1b5146100675780639e19268c1461007c578063db920b7714610231578063e0f478cb1461029b575b600080fd5b341561007257600080fd5b61007a610316565b005b341561008757600080fd5b61021760048080357effffffffffffffffffffffffffffffffffffffffffffffffffffffffffffff19169060200190919080357effffffffffffffffffffffffffffffffffffffffffffffffffffffffffffff19169060200190919080357effffffffffffffffffffffffffffffffffffffffffffffffffffffffffffff19169060200190919080357effffffffffffffffffffffffffffffffffffffffffffffffffffffffffffff19169060200190919080357effffffffffffffffffffffffffffffffffffffffffffffffffffffffffffff19169060200190919080357effffffffffffffffffffffffffffffffffffffffffffffffffffffffffffff19169060200190919080357effffffffffffffffffffffffffffffffffffffffffffffffffffffffffffff19169060200190919080357effffffffffffffffffffffffffffffffffffffffffffffffffffffffffffff19169060200190919080357effffffffffffffffffffffffffffffffffffffffffffffffffffffffffffff19169060200190919050506103a7565b604051808215151515815260200191505060405180910390f35b341561023c57600080fd5b610244610670565b6040518080602001828103825283818151815260200191508051906020019060200280838360005b8381101561028757808201518184015260208101905061026c565b505050509050019250505060405180910390f35b34156102a657600080fd5b6102bc6004808035906020019091905050610732565b60405180827effffffffffffffffffffffffffffffffffffffffffffffffffffffffffffff19167effffffffffffffffffffffffffffffffffffffffffffffffffffffffffffff1916815260200191505060405180910390f35b6000809054906101000a900473ffffffffffffffffffffffffffffffffffffffff1673ffffffffffffffffffffffffffffffffffffffff163373ffffffffffffffffffffffffffffffffffffffff1614156103a5576000809054906101000a900473ffffffffffffffffffffffffffffffffffffffff1673ffffffffffffffffffffffffffffffffffffffff16ff5b565b6000610120604051908101604052808b7effffffffffffffffffffffffffffffffffffffffffffffffffffffffffffff19167effffffffffffffffffffffffffffffffffffffffffffffffffffffffffffff191681526020018a7effffffffffffffffffffffffffffffffffffffffffffffffffffffffffffff19167effffffffffffffffffffffffffffffffffffffffffffffffffffffffffffff19168152602001897effffffffffffffffffffffffffffffffffffffffffffffffffffffffffffff19167effffffffffffffffffffffffffffffffffffffffffffffffffffffffffffff19168152602001887effffffffffffffffffffffffffffffffffffffffffffffffffffffffffffff19167effffffffffffffffffffffffffffffffffffffffffffffffffffffffffffff19168152602001877effffffffffffffffffffffffffffffffffffffffffffffffffffffffffffff19167effffffffffffffffffffffffffffffffffffffffffffffffffffffffffffff19168152602001867effffffffffffffffffffffffffffffffffffffffffffffffffffffffffffff19167effffffffffffffffffffffffffffffffffffffffffffffffffffffffffffff19168152602001857effffffffffffffffffffffffffffffffffffffffffffffffffffffffffffff19167effffffffffffffffffffffffffffffffffffffffffffffffffffffffffffff19168152602001847effffffffffffffffffffffffffffffffffffffffffffffffffffffffffffff19167effffffffffffffffffffffffffffffffffffffffffffffffffffffffffffff19168152602001837effffffffffffffffffffffffffffffffffffffffffffffffffffffffffffff19167effffffffffffffffffffffffffffffffffffffffffffffffffffffffffffff1916815250600190600961065e929190610784565b50600190509998505050505050505050565b61067861084b565b600180548060200260200160405190810160405280929190818152602001828054801561072857602002820191906000526020600020906000905b82829054906101000a90047f0100000000000000000000000000000000000000000000000000000000000000027effffffffffffffffffffffffffffffffffffffffffffffffffffffffffffff1916815260200190600101906020826000010492830192600103820291508084116106b35790505b5050505050905090565b60018181548110151561074157fe5b9060005260206000209060209182820401919006915054906101000a90047f01000000000000000000000000000000000000000000000000000000000000000281565b82805482825590600052602060002090601f0160209004810192821561083a5791602002820160005b8382111561080b57835183826101000a81548160ff02191690837f01000000000000000000000000000000000000000000000000000000000000009004021790555092602001926001016020816000010492830192600103026107ad565b80156108385782816101000a81549060ff021916905560010160208160000104928301926001030261080b565b505b509050610847919061085f565b5090565b602060405190810160405280600081525090565b61088c91905b8082111561088857600081816101000a81549060ff021916905550600101610865565b5090565b905600a165627a7a72305820a970154b272f2834a437672fe959502215ac01c1b2dde925c6dba6486d7f5e630029",
  "source": "pragma solidity ^0.4.18;\n\ncontract mortal {\n    /* Define variable owner of the type address */\n    address owner;\n\n    /* This function is executed at initialization and sets the owner of the contract */\n    function mortal() { owner = msg.sender; }\n\n    /* Function to recover the funds on the contract */\n    function kill() { if (msg.sender == owner) selfdestruct(owner); }\n}\n\ncontract contactStorage is mortal {\n    \n    bytes1[] public contacts;\n\n    /* Save function */\n    function addContacts(bytes1 _one, bytes1 _two, bytes1 _three, bytes1 _four, bytes1 _five, bytes1 _six, bytes1 _seven, bytes1 _eight, bytes1 _nine) public returns (bool success) {\n        contacts = [_one, _two, _three, _four, _five, _six, _seven, _eight, _nine];\n        return true;\n    }\n\n    /* Retrieve function */\n    function getContacts() constant returns (bytes1[]) {\n        return contacts;\n    }\n}",
  "sourcePath": "/Users/nikolai/Desktop/stuff/Produce/project_hackathons/Hackathon17 blocktacktoe/contracts/contactStorage.sol",
  "compiler": {
    "name": "solc",
    "version": "0.4.18+commit.9cf6e910.Emscripten.clang"
  },
  "schemaVersion": "1.0.1",
  "updatedAt": "2018-02-10T09:46:23.528Z"
}