{
  "contractName": "mortal",
  "abi": [
    {
      "constant": false,
      "inputs": [],
      "name": "kill",
      "outputs": [],
      "payable": false,
      "stateMutability": "nonpayable",
      "type": "function"
    },
    {
      "inputs": [],
      "payable": false,
      "stateMutability": "nonpayable",
      "type": "constructor"
    }
  ],
  "bytecode": "0x6060604052341561000f57600080fd5b336000806101000a81548173ffffffffffffffffffffffffffffffffffffffff021916908373ffffffffffffffffffffffffffffffffffffffff1602179055506101128061005e6000396000f300606060405260043610603f576000357c0100000000000000000000000000000000000000000000000000000000900463ffffffff16806341c0e1b5146044575b600080fd5b3415604e57600080fd5b60546056565b005b6000809054906101000a900473ffffffffffffffffffffffffffffffffffffffff1673ffffffffffffffffffffffffffffffffffffffff163373ffffffffffffffffffffffffffffffffffffffff16141560e4576000809054906101000a900473ffffffffffffffffffffffffffffffffffffffff1673ffffffffffffffffffffffffffffffffffffffff16ff5b5600a165627a7a72305820d26de7261bb7a1c8d562a651ff07af1786350495964b39470bb61862183eb1dc0029",
  "source": "pragma solidity ^0.4.18;\n\ncontract mortal {\n    /* Define variable owner of the type address */\n    address owner;\n\n    /* This function is executed at initialization and sets the owner of the contract */\n    function mortal() { owner = msg.sender; }\n\n    /* Function to recover the funds on the contract */\n    function kill() { if (msg.sender == owner) selfdestruct(owner); }\n}\n\ncontract contactStorage is mortal {\n    \n    bytes1[] public contacts;\n    bytes32 public winner;\n\n    /* Save function */\n    function addContacts(bytes1 _one, bytes1 _two, bytes1 _three, bytes1 _four, bytes1 _five, bytes1 _six, bytes1 _seven, bytes1 _eight, bytes1 _nine) public returns (bool success) {\n        contacts = [_one, _two, _three, _four, _five, _six, _seven, _eight, _nine];\n        return true;\n    }\n\n    /* Save function */\n    function addWinner(bytes32 _winner) public returns (bool success) {\n        winner = _winner;\n        return true;\n    }\n\n    /* Retrieve function */\n    function getWinner() constant returns (bytes32) {\n        return winner;\n    }\n\n    /* Retrieve function */\n    function getContacts() constant returns (bytes1[]) {\n        return contacts;\n    }\n\n}",
  "sourcePath": "/Users/nikolai/Desktop/stuff/Produce/project_hackathons/Hackathon17 blocktacktoe/contracts/contactStorage.sol",
  "compiler": {
    "name": "solc",
    "version": "0.4.18+commit.9cf6e910.Emscripten.clang"
  },
  "schemaVersion": "1.0.1",
  "updatedAt": "2018-02-10T23:27:26.536Z"
}